:100000000C9459000C9481000C9481000C94810094
:100010000C9481000C9481000C9481000C9481005C
:100020000C9481000C9481000C9481000C9481004C
:100030000C9481000C9481000C9481000C9481003C
:100040000C94000A0C9481000C94700A0C944A0AD7
:100050000C9481000C9481000C9481000C9481001C
:100060000C94A20A0C9481000000000025002800D6
:100070002B00040404040404040402020202020229
:10008000030303030303010204081020408001025C
:1000900004081020010204081020000000080002DB
:1000A0000100000304070000000000000000C10B75
:1000B000E00C11241FBECFEFD8E0DEBFCDBF11E0B2
:1000C000A0E0B1E0E4EFF0E202C005900D92AE389E
:1000D000B107D9F723E0AEE8B1E001C01D92AC3022
:1000E000B207E1F710E0C8E5D0E004C02197FE01B7
:1000F0000E94060DC735D107C9F70E94100C0C9459
:100100006D100C9400008091FE029091FF02009708
:1001100011F480E00895DC01ED91FC910680F781F7
:10012000E02D09958823A9F3E091FE02F091FF02EA
:100130004281538164817581409300035093010390
:100140006093020370930303468157816085718534
:1001500040930403509305036093060370930703D1
:100160000895FC018081682798E081E367FF03C060
:10017000660F682701C0660F9150C1F781818627FD
:1001800098E021E387FF03C0880F822701C0880F12
:100190009150C1F7089590E0FC01E656FF4F24917D
:1001A000FC01EA57FF4F3491FC01EE58FF4FE491F8
:1001B000EE23C9F0222339F0233001F1A8F42130D5
:1001C00019F1223029F1F0E0EE0FFF1FE859FF4F3F
:1001D000A591B4918FB7F894EC91611126C0309538
:1001E0003E233C938FBF08952730A9F02830C9F0F3
:1001F000243049F7809180008F7D03C0809180007A
:100200008F7780938000DFCF84B58F7784BDDBCF7D
:1002100084B58F7DFBCF8091B0008F778093B00045
:10022000D2CF8091B0008F7DF9CF3E2BDACF3FB790
:10023000F89480914D0290914E02A0914F02B0919E
:10024000500226B5A89B05C02F3F19F00196A11DAD
:10025000B11D3FBFBA2FA92F982F8827BC01CD0110
:10026000620F711D811D911D42E0660F771F881F6F
:10027000991F4A95D1F708958F929F92AF92BF929E
:10028000CF92DF92EF92FF926B017C010E941701E7
:100290004B015C01C114D104E104F104B9F00E94E6
:1002A0001701681979098A099B09683E734081051D
:1002B000910580F321E0C21AD108E108F10888EE27
:1002C000880E83E0981EA11CB11CE4CFFF90EF9034
:1002D000DF90CF90BF90AF909F908F90089508953A
:1002E0000895AF92BF92CF92DF92EF92FF920F9359
:1002F0001F93CF93DF936C017B018B01040F151FBC
:10030000EB015E01AE18BF08C017D10759F0699123
:10031000D601ED91FC910190F081E02DC601099587
:10032000892B79F7C501DF91CF911F910F91FF9034
:10033000EF90DF90CF90BF90AF900895FC01538D68
:10034000448D252F30E0842F90E0821B930B5417AF
:1003500010F0CF96089501970895FC01918D828D3C
:10036000981761F0A28DAE0FBF2FB11D5D968C91D5
:10037000928D9F5F9F73928F90E008958FEF9FEF14
:100380000895FC01918D828D981731F0828DE80FD0
:10039000F11D858D90E008958FEF9FEF0895FC018A
:1003A000918D228D892F90E0805C9F4F821B910957
:1003B0008F739927089581E592E00E94CF0121E093
:1003C000892B09F420E0822F089580E090E0892BAA
:1003D00029F00E94DB0181110C9400000895FC01BA
:1003E000A48DA80FB92FB11DA35ABF4F2C91848D96
:1003F00090E001968F739927848FA689B7892C93F3
:10040000A089B1898C91837080648C93938D848D45
:10041000981306C00288F389E02D80818F7D808348
:100420000895EF92FF920F931F93CF93DF93EC0108
:1004300081E0888F9B8D8C8D98131AC0E889F9898B
:10044000808185FF15C09FB7F894EE89FF8960838E
:10045000E889F98980818370806480839FBF81E00F
:1004600090E0DF91CF911F910F91FF90EF90089551
:10047000F62E0B8D10E00F5F1F4F0F731127E02E2C
:100480008C8D8E110CC00FB607FCFACFE889F98964
:10049000808185FFF5CFCE010E94EF01F1CFEB8D7A
:1004A000EC0FFD2FF11DE35AFF4FF0829FB7F89438
:1004B0000B8FEA89FB8980818062CFCFCF93DF9356
:1004C000EC01888D8823B9F0AA89BB89E889F9896C
:1004D0008C9185FD03C0808186FD0DC00FB607FCA1
:1004E000F7CF8C9185FFF2CF808185FFEDCFCE01D4
:1004F0000E94EF01E9CFDF91CF9108950895CF9346
:10050000DF93EC018C819D81009749F0DC01ED9136
:10051000FC910280F381E02D09951D821C82DF9100
:10052000CF910895FC016130710571F028F06230BF
:10053000710581F080E0089580E09DEF94878387C6
:100540008AE0858781E0089580E096EF948783872D
:1005500084E0F7CF80E090EE9487838782E0F1CF4C
:10056000FC016130710571F028F06230710581F095
:1005700080E0089580E094E2948783878FE0858708
:1005800081E008958BE094E29487838786E0F7CF3B
:1005900086E194E29487838784E0F1CF80E0089538
:1005A0002091AF01260F3327331F21323105ECF4A0
:1005B00020911A02FC0190E080E0243069F082E092
:1005C0000895A091AF012191AC0141575E4FA40F56
:1005D000B52FB11D2C930196861798F38091AF012A
:1005E000680F6093AF0180E0089581E00895109254
:1005F0001A0281E0809319021092140261E082E1F4
:100600000E94CB0061E083E10E94CB00E9EBF0E0C7
:1006100080818E7F808380818D7F808388E480933A
:10062000B80085E48093BC000895CF93DF9391E0F8
:1006300090938E018823B9F0C091B800D091BA0090
:100640008091BC008A7B8093BC0060E082E10E94C4
:10065000CB0060E083E10E94CB000E94F702D093C0
:10066000BA00C093B800DF91CF9108950895E0914A
:10067000470280914602E81730F4F0E0E05EFD4F5B
:10068000808190E008958FEF9FEF08959091470249
:10069000809146022FEF3FEF981748F4E92FF0E0E2
:1006A000E05EFD4F208130E09F5F90934702C901DB
:1006B00008958091460290914702891B990B0895F5
:1006C000CF92DF92EF92FF920F931F93CF93DF931E
:1006D0007C01CB018A012091D201222389F0EB0118
:1006E0006B01C40ED51ECC15DD0569F06991D701EB
:1006F000ED91FC910190F081E02DC7010995F3CFB8
:10070000642F0E94D002C801DF91CF911F910F91F9
:10071000FF90EF90DF90CF900895CF93DF931F92DB
:10072000CDB7DEB769832091D2012223F9F0209161
:100730004402203258F021E030E0FC013383228370
:1007400090E080E00F90DF91CF9108958091450275
:10075000E82FF0E0ED52FE4F998190838F5F8093F8
:1007600045028093440281E090E0ECCF61E0CE014D
:1007700001960E94D002F7CF90E080E0089528E62D
:1007800031E0FC01318320830C947F02FC01019055
:100790000020E9F73197AF01481B590BBC0181E5F7
:1007A00092E00C9471018F929F92AF92BF920F933F
:1007B0001F93CF93DF93CDB7DEB7A1970FB6F89411
:1007C000DEBF0FBECDBF19A2423008F44AE08E0151
:1007D0000F5D1F4F842E912CB12CA12CA5019401EB
:1007E0000E94E40CE62FB901CA01EA30F4F4E05D9E
:1007F000D801EE938D01232B242B252B79F790E044
:1008000080E0109719F0CD010E94C603A1960FB6A3
:10081000F894DEBF0FBECDBFDF91CF911F910F9136
:10082000BF90AF909F908F900895E95CE1CF0F93B8
:100830001F93CF93DF938091FE029091FF02892B4B
:1008400021F08AEF92E00E947F02E091FC02F09199
:10085000FD02EA30F10508F055C0EF5CFB4F0C9447
:10086000060D4D0588048804C604CD04CD04CD04CE
:10087000CD040B053B0489E290E00E94480FFC0187
:1008800080E4828785EF93EF9487838785E585876A
:1008900086E696E6ABE3B2EC86879787A08BB18BB2
:1008A00082E598EBAFE2B3E4828B938BA48BB58B9C
:1008B00080E090E0A0E8B7E4868B978BA08FB18FA3
:1008C00040E050E060EC70EC428F538F648F758F86
:1008D00040E050E06AEF72E4468F578F60A371A347
:1008E00082A393A3A4A3B5A381E086A38EEE92E096
:1008F00090A787A38EE291E091838083F093FF021B
:10090000E093FE02DF91CF911F910F910C94830031
:1009100089E290E00E94480FFC0184E4828780E035
:1009200094E2948783878FE0858780E090E0A4E35A
:10093000B2EC86879787A08BB18B80E090E0AFE226
:10094000B3E4828B938BA48BB58B80E09FEFAFE7F2
:10095000B7E4868B978BA08FB18F128E138E148E77
:10096000158E40E050E068EC72E4468F578F60A32C
:1009700071A382A393A3A4A3B5A382E086A38EEE62
:1009800092E090A787A382E291E0B6CF89E290E05F
:100990000E94480FFC0185E4C1CF89E290E00E94EB
:1009A000480FFC0180E7828786E698E79487838773
:1009B0008FE0858780E090E0A4E3B2EC868797879C
:1009C000A08BB18B80E090E0AFE2B3E4828B938B9D
:1009D000A48BB58B80E09FEFAFE7B7E4868B978B56
:1009E000A08FB18F128E138E148E158E40E050E0C2
:1009F00068EC72E4468F578F60A371A382A393A320
:100A0000A4A3B5A382E086A38EEE92E090A787A36D
:100A100086E191E071CF89E290E00E94480FFC01ED
:100A200084E4828780E09DEF948783878AE08587CE
:100A300080E090E0A4E3B2EC86879787A08BB18B2F
:100A400080E090E0AFE2B3E4828B938BA48BB58B14
:100A500080E09FEFAFE7B7E4868B978BA08FB18FD5
:100A600040E050E060EC70EC428F538F648F758FE4
:100A700040E050E06AEF72E4468F578F60A371A3A5
:100A800082A393A3A4A3B5A381E086A38EEE92E0F4
:100A900090A787A38AE091E02FCFC6E3D1E000E4DE
:100AA00011E0899199919093FD028093FC0268E294
:100AB00070E080E090E00E943C010E9417048111E8
:100AC00021CF0C171D0769F78AEF92E00E947F0281
:100AD00019CF4F925F926F927F928F929F92AF92B7
:100AE000BF92CF92DF92EF92FF920F931F93CF931B
:100AF0006B017C01742EAC019B010E94430F882383
:100B000099F08CE691E0CF911F910F91FF90EF90BB
:100B1000DF90CF90BF90AF909F908F907F906F901D
:100B20005F904F900C94C60346015701E894B7F8C4
:100B30002FEF3FEF4FE75FE7C501B4010E94430F7E
:100B400081110DC02FEF3FEF4FE75FE7C501B40103
:100B50000E94790D18161CF480E791E0D4CF2FEF96
:100B60003FEF4FE75FE4C701B6010E94D10E1816B0
:100B70001CF484E791E0C7CF2FEF3FEF4FE75FEC26
:100B8000C701B6010E94790D87FDF3CF20E030E068
:100B9000A901C701B6010E94790D10E000E087FFAE
:100BA0000AC06DE281E592E00E9411028C01F7FA21
:100BB000F094F7F8F094C0E060E070E080E09FE32C
:100BC0007C1641F020E030E040E251E40E947E0DCE
:100BD000CF5FF6CFA70196010E940D0D2B013C01BE
:100BE0000E94F00D4B015C014AE00E94D3037C019E
:100BF000E00EF11ECC23C1F1C501B4010E941F0E0D
:100C00009B01AC01C301B2010E940C0D4B015C01C0
:100C10006EE281E592E00E941102E80EF91EC150D9
:100C200018F120E030E040E251E4C501B4010E9437
:100C3000D60E2B013C010E94F00D4B01B12CA12CD2
:100C40004AE0C501B4010E94D303E80EF91EC501B4
:100C5000B4010E941F0E9B01AC01C301B2010E94AE
:100C60000C0D4B015C01DBCFC701CF911F910F91A0
:100C7000FF90EF90DF90CF90BF90AF909F908F90BC
:100C80007F906F905F904F9008954F925F926F9218
:100C90007F928F929F92AF92BF92CF92EF920F93DB
:100CA0001F93CF93DF935C01D62F3A0181E08093AD
:100CB000D2016093F30110924502109244024A015E
:100CC000422E512CC4018619970984159505ECF420
:100CD000D4016D914D01D501ED91FC910190F08110
:100CE000E02DC5010995019769F380E0DF91CF916F
:100CF0001F910F91EF90CF90BF90AF909F908F90EA
:100D00007F906F905F904F90089590904402B0E272
:100D1000C1E0B91508F49CC0C091F3010E9417010D
:100D20002B013C0180911A0281116CC082E08093FA
:100D30001A0281E0809319028FEF809318021092BB
:100D4000170290921602E3EDF1E0A4EFB1E080E02B
:100D50009812FAC01092150280911502CC0FC82B80
:100D6000C093150280911402813009F0F1C01092F5
:100D700014020E9417012B013C01809115028093FF
:100D8000BB0080911C0290911D02A0911E02B091A7
:100D90001F02892B8A2B8B2BA1F00E941701209117
:100DA0001C0230911D0240911E0250911F026419D5
:100DB000750986099709261737074807590708F460
:100DC00042C08091BC0083FDD8CF85EC8093BC00ED
:100DD0000E9417012B013C0180911A02823009F414
:100DE000B9C080911802C0E08F3F91F18091180244
:100DF000C2E0803269F180911802C4E0803341F58D
:100E0000C3E026C080911C0290911D02A0911E0299
:100E1000B0911F02892B8A2B8B2B09F483CF0E9460
:100E2000170120911C0230911D0240911E02509129
:100E30001F0264197509860997092617370748079D
:100E4000590708F06FCF80911B020E941503C5E07F
:100E500010924502109244021092D201C11145CF66
:100E60006C2D70E090E080E00E943C010E94170130
:100E70002B013C0180911A0281118EC081E0809388
:100E80001A02809319029FEF909318021092170292
:100E90009E0D909316028093150280911502DD0F2E
:100EA000D82BD093150280911402813009F0BCC078
:100EB000109214020E9417012B013C01809115022F
:100EC0008093BB0080911C0290911D02A0911E0294
:100ED000B0911F02892B8A2B8B2BA1F00E94170146
:100EE00020911C0230911D0240911E0250911F0260
:100EF000641975098609970926173707480759079E
:100F000008F46BC08091BC0083FDD8CF85EC809342
:100F1000BC000E9417012B013C0180911A02813014
:100F200009F484C0809117028E1508F0A1C0809149
:100F30001702A4EFB1E0E0E2F2E0C81709F451C0F3
:100F40009D919193CF5FF9CF91919D938F5F00CF4A
:100F500085EE3CCF80911C0290911D02A0911E0253
:100F6000B0911F02892B8A2B8B2B09F435CF0E945D
:100F7000170120911C0230911D0240911E025091D8
:100F80001F0264197509860997092617370748074C
:100F9000590708F021CF57CF80911C0290911D0274
:100FA000A0911E02B0911F02892B8A2B8B2B09F472
:100FB00061CF0E94170120911C0230911D024091C7
:100FC0001E0250911F026419750986099709261798
:100FD00037074807590708F04DCF80911B020E9440
:100FE000150310924702C0934602D501ED91FC9182
:100FF0000084F185E02DC50109954C01E81619061C
:1010000009F073CEE801D501ED91FC910284F385DE
:10101000E02DC50109958993CE01801B910B8815A0
:1010200099058CF381E062CE85EE71CF80911C0230
:1010300090911D02A0911E02B0911F02892B8A2B54
:101040008B2B09F46ACF0E94170120911C0230916A
:101050001D0240911E0250911F02641975098609F4
:101060009709261737074807590708F056CFB5CF15
:101070008E2D5FCF0C94E40F0C94E40F0C94E40FCE
:101080000C94E40FCF93DF93EC010E94BF03CE01D9
:10109000DF91CF910C94E40F6F927F928F929F9289
:1010A000AF92BF92CF92EF920F931F93CF93DF93A4
:1010B00000D000D000D0CDB7DEB75C018DB69EB6B3
:1010C000FC0126A18DB79EB7821B91090FB6F8943B
:1010D0009EBF0FBE8DBFEDB7FEB731963F01F50144
:1010E0008485EDB7FEB78183F501C58443E0E42E26
:1010F0008E010F5F1F4FA301628587A190A50E94FB
:10110000450681111AC000E0802F0FB6F8949EBEEC
:101110000FBE8DBE26960FB6F894DEBF0FBECDBFB4
:10112000DF91CF911F910F91EF90CF90BF90AF9033
:101130009F908F907F906F900895F5018385F301C4
:101140008083F501C58433E0E32E8E010C5F1F4FD1
:1011500026A1A301628587A190A50E944506082FBC
:10116000882389F260E0CE0101960E94B1009B8144
:101170008913C9CF60E0CE0104960E94B1009E8120
:101180008913C1CF8A8181FDBECF1D8111FFBBCFE5
:101190006981262F30E0322F2227682F6C7F620F63
:1011A000732F711D90E080E00E941F0EF5012689CB
:1011B0003789408D518D0E947E0DF501228933893A
:1011C000448955890E94D60EF501268537854089C8
:1011D00051890E940D0DF501628373838483958389
:1011E0006C81862F90E0982F8827612F6C7F680F85
:1011F000792F711D90E080E00E941F0EF50122A161
:1012000033A144A155A10E947E0DF501268D378D95
:1012100040A151A10E94D60EF501228D338D448D3F
:10122000558D0E940D0DF501668377838087918728
:101230006BCF8F929F92AF92BF92CF92EF920F930C
:101240001F93CF93DF9300D000D000D0CDB7DEB78F
:101250005C018DB69EB6FC0126A18DB79EB7821BA0
:1012600091090FB6F8949EBF0FBE8DBF4DB75EB704
:101270004F5F5F4F83859485EDB7FEB79183FA0189
:101280008183F501C58466E0E62E8E010F5F1F4F56
:10129000628587A190A50E944506182F882309F42E
:1012A0005EC06FEFCE0101960E94B1009B81891351
:1012B0006DC06FEFCE0104960E94B1009E8189132C
:1012C00065C06981862F90E0982F88276A81680F12
:1012D000792F711D90E080E00E941F0EF501268994
:1012E0003789408D518D0E947E0DF5012289338909
:1012F000448955890E94D60EF50126853785408997
:1013000051890E940D0DF501628373838483958357
:101310006C81862F90E0982F88276D81680F792F38
:10132000711D90E080E00E941F0EF50122A133A103
:1013300044A155A10E947E0DF501268D378D40A157
:1013400051A10E94D60EF501228D338D448D558D0D
:101350000E940D0DF5016683778380879187812F29
:101360000FB6F8949EBE0FBE8DBE26960FB6F894AB
:10137000DEBF0FBECDBFDF91CF911F910F91EF90D8
:10138000CF90BF90AF909F908F90089510E0E7CFDF
:1013900085ED8093BC0080911C0290911D02A0916C
:1013A0001E02B0911F020796A11DB11D23E0B69544
:1013B000A795979587952A95D1F72091BC0024FD94
:1013C00003C010921A02089540911C0250911D0210
:1013D00060911E0270911F02452B462B472B69F32B
:1013E0000097A105B10541F02AE22A95F1F700C066
:1013F0000197A109B109E1CF80911B020C9415035B
:101400001F920F920FB60F9211242F933F938F9339
:101410009F93AF93BF938091490290914A02A0910C
:101420004B02B0914C023091480223E0230F2D373C
:1014300058F50196A11DB11D2093480280934902E1
:1014400090934A02A0934B02B0934C0280914D02BC
:1014500090914E02A0914F02B09150020196A11DB1
:10146000B11D80934D0290934E02A0934F02B09312
:101470005002BF91AF919F918F913F912F910F900B
:101480000FBE0F901F90189526E8230F0296A11DFE
:10149000B11DD2CF1F920F920FB60F9211242F932E
:1014A0003F934F935F936F937F938F939F93AF93EC
:1014B000BF93EF93FF9381E592E00E94EF01FF91CC
:1014C000EF91BF91AF919F918F917F916F915F91BC
:1014D0004F913F912F910F900FBE0F901F90189535
:1014E0001F920F920FB60F9211242F938F939F93F9
:1014F000EF93FF93E0916102F09162028081E091AD
:101500006702F091680282FD1BC0908180916A029F
:101510008F5F8F7320916B02821741F0E0916A0216
:10152000F0E0EF5AFD4F958F80936A02FF91EF91A3
:101530009F918F912F910F900FBE0F901F90189534
:101540008081F4CF1F920F920FB60F9211242F9328
:101550003F934F935F936F937F938F939F93AF933B
:10156000BF93EF93FF938091B900887F803609F491
:101570004AC0F0F5883209F4A7C018F5803109F4A3
:101580009BC0B8F4882309F4F9C0883009F494C0EA
:10159000FF91EF91BF91AF919F918F917F916F914B
:1015A0005F914F913F912F910F900FBE0F901F9021
:1015B0001895883109F488C0803251F78093180259
:1015C00014C0803409F49DC040F48033B9F38833EB
:1015D000F9F68093180285ECB0C0803509F485C017
:1015E000883509F496C0883499F60E94C809D0CF8E
:1015F000883909F48CC038F5883729F050F48836DA
:1016000011F0803729F683E080931A021092D101FD
:1016100057C0883809F47BC0803919F0803809F048
:10162000B7CF8091D101803208F071C0E091D10133
:1016300081E08E0F8093D1018091BB00F0E0EF54E8
:10164000FE4F80833DC0803B39F0E0F4803A09F4DE
:1016500079C0883A09F09CCF84E080931A021092F6
:10166000B0011092AF01E0914202F091430209955E
:101670008091AF0181110FC081E08093AF01109282
:101680008F0109C0803C09F4A6CF883C09F4A3CFA0
:10169000883B09F07DCFE091B00181E08E0F80930F
:1016A000B001F0E0E157FE4F80818093BB00909144
:1016B000B0018091AF0129C0809115028093BB00D9
:1016C00085EC8093BC0064CF909117028091160244
:1016D000981758F5E091170281E08E0F809317025A
:1016E000F0E0EC50FE4F8081E9CFE091170281E0FD
:1016F0008E0F809317028091BB00F0E0EC50FE4FFC
:10170000808390911702809116029817C8F285E89D
:10171000D8CFE091170281E08E0F8093170280915D
:10172000BB00F0E0EC50FE4F8083809119028111E4
:101730005CCF81E08093140284EA8093BC00109215
:101740001A0226CF85EC8093BC0010921A02809179
:10175000D101803230F4E091D101F0E0EF54FE4F3E
:1017600010826091D10170E0E0914002F09141025D
:1017700081EB91E009951092D1010ACF10921802E5
:1017800034CFE1E5F2E01382128288EE93E0A0E02C
:10179000B0E084839583A683B78324E431E031836A
:1017A000208325EC30E03587248724EC30E0378730
:1017B000268720EC30E0318B208B21EC30E0338B1E
:1017C000228B22EC30E0358B248B26EC30E0378BFB
:1017D000268B118E128E138E148EEEEEF2E0138293
:1017E000128284839583A683B78386E591E09183F3
:1017F0008083EAEFF2E088E691E0918380831382B0
:1018000012821582148280E090E0A0ECBFE786830C
:101810009783A087B18782879387A487B587089528
:10182000789484B5826084BD84B5816084BD85B5BB
:10183000826085BD85B5816085BD80916E008160C7
:1018400080936E001092810080918100826080936D
:10185000810080918100816080938100809180006F
:101860008160809380008091B10084608093B1009A
:101870008091B00081608093B00080917A00846094
:1018800080937A0080917A00826080937A008091C0
:101890007A00816080937A0080917A0080688093DA
:1018A0007A001092C100E0916102F091620282E040
:1018B0008083E0915D02F0915E021082E0915F0210
:1018C000F09160028FEC808310926902E0916502D2
:1018D000F091660286E08083E0916302F0916402F9
:1018E000808180618083E0916302F0916402808155
:1018F00088608083E0916302F09164028081806857
:101900008083E0916302F091640280818F7D808307
:101910001092470210924602109245021092440221
:101920000E94F7028FE691E0909343028093420277
:1019300080E791E090934102809340020E94170457
:10194000C0E0D0E0811109C088E791E00E94C603A1
:1019500089E891E00E94C603FFCF0E94830088239C
:1019600001F1C0900403D0900503E0900603F090CD
:10197000070360910003709101038091020390912D
:10198000030342E00E9469058CE891E00E94C603CF
:1019900042E0C701B6010E94690589E891E00E9412
:1019A000C60360ED77E080E090E00E943C01209764
:1019B000A1F20E94DB01882381F20E940000CDCFBA
:1019C0008AEF92E00C94BF03A1E21A2EAA1BBB1B64
:1019D000FD010DC0AA1FBB1FEE1FFF1FA217B307FB
:1019E000E407F50720F0A21BB30BE40BF50B661F11
:1019F000771F881F991F1A9469F7609570958095D5
:101A000090959B01AC01BD01CF010895EE0FFF1F22
:101A10000590F491E02D09945058BB27AA270E9405
:101A2000240D0C94970E0E94890E38F00E94900E9F
:101A300020F039F49F3F19F426F40C94860E0EF42E
:101A4000E095E7FB0C94800EE92F0E94A80E58F356
:101A5000BA17620773078407950720F079F4A6F593
:101A60000C94CA0E0EF4E0950B2EBA2FA02D0B018C
:101A7000B90190010C01CA01A0011124FF27591BD3
:101A800099F0593F50F4503E68F11A16F040A22FD9
:101A9000232F342F4427585FF3CF4695379527954A
:101AA000A795F0405395C9F77EF41F16BA0B620B49
:101AB000730B840BBAF09150A1F0FF0FBB1F661F90
:101AC000771F881FC2F70EC0BA0F621F731F841FD3
:101AD00048F4879577956795B795F7959E3F08F0F9
:101AE000B0CF9395880F08F09927EE0F97958795BB
:101AF00008950E945C0E08F481E008950E94920D02
:101B00000C94970E0E94900E58F00E94890E40F09F
:101B100029F45F3F29F00C94800E51110C94CB0EE8
:101B20000C94860E0E94A80E68F39923B1F35523F6
:101B300091F3951B550BBB27AA27621773078407E0
:101B400038F09F5F5F4F220F331F441FAA1FA9F376
:101B500035D00E2E3AF0E0E832D091505040E69564
:101B6000001CCAF72BD0FE2F29D0660F771F881FC5
:101B7000BB1F261737074807AB07B0E809F0BB0BB8
:101B8000802DBF01FF2793585F4F3AF09E3F5105CC
:101B900078F00C94800E0C94CB0E5F3FE4F3983EEB
:101BA000D4F3869577956795B795F7959F5FC9F7B5
:101BB000880F911D9695879597F90895E1E0660F36
:101BC000771F881FBB1F621773078407BA0720F0AF
:101BD000621B730B840BBA0BEE1F88F7E095089518
:101BE0000E94B00E88F09F5798F0B92F9927B751EF
:101BF000B0F0E1F0660F771F881F991F1AF0BA95B1
:101C0000C9F714C0B13091F00E94CA0EB1E0089536
:101C10000C94CA0E672F782F8827B85F39F0B93F28
:101C2000CCF3869577956795B395D9F73EF4909563
:101C30008095709561957F4F8F4F9F4F0895E894E1
:101C400009C097FB3EF490958095709561957F4F04
:101C50008F4F9F4F9923A9F0F92F96E9BB279395B2
:101C6000F695879577956795B795F111F8CFFAF4C2
:101C7000BB0F11F460FF1BC06F5F7F4F8F4F9F4FF3
:101C800016C0882311F096E911C0772321F09EE851
:101C9000872F762F05C0662371F096E8862F70E0B7
:101CA00060E02AF09A95660F771F881FDAF7880F91
:101CB0009695879597F90895990F0008550FAA0BE7
:101CC000E0E8FEEF16161706E807F907C0F012164F
:101CD0001306E407F50798F0621B730B840B950B52
:101CE00039F40A2661F0232B242B252B21F40895A7
:101CF0000A2609F4A140A6958FEF811D811D089544
:101D000097F99F6780E870E060E008959FEF80ECAE
:101D1000089500240A941616170618060906089551
:101D200000240A9412161306140605060895092EB7
:101D30000394000C11F4882352F0BB0F40F4BF2B26
:101D400011F460FF04C06F5F7F4F8F4F9F4F089566
:101D500057FD9058440F551F59F05F3F71F047955C
:101D6000880F97FB991F61F09F3F79F08795089541
:101D7000121613061406551FF2CF4695F1DF08C060
:101D8000161617061806991FF1CF8695710561057D
:101D900008940895E894BB2766277727CB0197F925
:101DA00008950E945C0E08F48FEF08950E94E90EDA
:101DB0000C94970E0E94890E38F00E94900E20F02D
:101DC000952311F00C94800E0C94860E11240C9423
:101DD000CB0E0E94A80E70F3959FC1F3950F50E0B3
:101DE000551F629FF001729FBB27F00DB11D639FCD
:101DF000AA27F00DB11DAA1F649F6627B00DA11D73
:101E0000661F829F2227B00DA11D621F739FB00D18
:101E1000A11D621F839FA00D611D221F749F332788
:101E2000A00D611D231F849F600D211D822F762F21
:101E30006A2F11249F5750409AF0F1F088234AF0FE
:101E4000EE0FFF1FBB1F661F771F881F915050406A
:101E5000A9F79E3F510580F00C94800E0C94CB0E98
:101E60005F3FE4F3983ED4F3869577956795B795F1
:101E7000F795E7959F5FC1F7FE2B880F911D96950B
:101E8000879597F908950E945C0E880B990B089529
:101E90000F931F93CF93DF938230910510F482E06C
:101EA00090E0E0910A03F0910B0330E020E0B0E015
:101EB000A0E0309799F42115310509F44AC0281B98
:101EC000390B24303105D8F58A819B816115710564
:101ED00089F1FB0193838283FE0111C0408151810E
:101EE0000281138148175907E0F04817590799F400
:101EF000109761F012960C93129713961C933296DA
:101F0000CF01DF91CF911F910F91089500930A03A4
:101F100010930B03F4CF2115310551F042175307ED
:101F200038F0A901DB019A01BD01DF01F801C1CF41
:101F3000EF01F9CF90930B0380930A03CDCFFE01FD
:101F4000E20FF31F81939193225031093983288343
:101F5000D7CF2091080330910903232B41F420911E
:101F6000020130910301309309032093080320916B
:101F70000001309101012115310541F42DB73EB723
:101F80004091040150910501241B350BE091080399
:101F9000F0910903E217F307A0F42E1B3F0B28175B
:101FA000390778F0AC014E5F5F4F2417350748F0D2
:101FB0004E0F5F1F50930903409308038193919341
:101FC0009FCFF0E0E0E09CCFCF93DF930097E9F064
:101FD000FC01329713821282A0910A03B0910B0385
:101FE000ED0130E020E01097A1F420813181820FD3
:101FF000931F20910803309109032817390709F02E
:1020000061C0F0930903E0930803DF91CF91089535
:10201000EA01CE17DF07E8F54A815B819E01411591
:102020005105B1F7E901FB83EA8349915991C40F46
:10203000D51FEC17FD0761F4808191810296840F12
:10204000951FE90199838883828193819B838A8389
:10205000F0E0E0E012968D919C9113970097B9F50E
:102060002D913C911197CD010296820F931F2091E3
:102070000803309109032817390739F6309751F5CD
:1020800010920B0310920A03B0930903A093080364
:10209000BCCFD383C28340815181840F951FC81761
:1020A000D90761F44E5F5F4F88819981480F591FAE
:1020B000518340838A819B819383828321153105DB
:1020C00009F0B0CFF0930B03E0930A039ECFFD011C
:1020D000DC01C0CF13821282D7CF10E0C8E5D0E078
:1020E00004C0FE010E94060D2196C935D107C9F72B
:0420F000F894FFCF92
:1020F40000000C038000000000007E023A089202F7
:102104001909000000007E023C08CE0219090000F3
:1021140000007E024008B0021909000000007E029F
:102124003E08CE024C080800090001000300040028
:1021340000000000110271019E015E02CF01AD0199
:10214400C101000000008D036003BC033603590382
:102154004603370300000000BF0342086E616E00AF
:10216400696E66006F76660053485420496E697440
:0E217400206661696C656421000D0A002C0074
:00000001FF
